{
  "contractName": "Doc",
  "abi": [
    {
      "constant": true,
      "inputs": [
        {
          "internalType": "string",
          "name": "",
          "type": "string"
        }
      ],
      "name": "storedDocs",
      "outputs": [
        {
          "internalType": "string",
          "name": "docHash",
          "type": "string"
        },
        {
          "internalType": "string",
          "name": "orgID",
          "type": "string"
        },
        {
          "internalType": "string",
          "name": "docID",
          "type": "string"
        }
      ],
      "payable": false,
      "stateMutability": "view",
      "type": "function",
      "signature": "0xe28bddd9"
    },
    {
      "constant": false,
      "inputs": [
        {
          "internalType": "string",
          "name": "contentHash",
          "type": "string"
        },
        {
          "internalType": "string",
          "name": "_docHash",
          "type": "string"
        },
        {
          "internalType": "string",
          "name": "_orgID",
          "type": "string"
        },
        {
          "internalType": "string",
          "name": "_docID",
          "type": "string"
        }
      ],
      "name": "set",
      "outputs": [
        {
          "internalType": "bool",
          "name": "",
          "type": "bool"
        }
      ],
      "payable": false,
      "stateMutability": "nonpayable",
      "type": "function",
      "signature": "0xf60886b5"
    },
    {
      "constant": true,
      "inputs": [
        {
          "internalType": "string",
          "name": "contentHash",
          "type": "string"
        }
      ],
      "name": "get",
      "outputs": [
        {
          "components": [
            {
              "internalType": "string",
              "name": "docHash",
              "type": "string"
            },
            {
              "internalType": "string",
              "name": "orgID",
              "type": "string"
            },
            {
              "internalType": "string",
              "name": "docID",
              "type": "string"
            }
          ],
          "internalType": "struct Doc.Document",
          "name": "",
          "type": "tuple"
        }
      ],
      "payable": false,
      "stateMutability": "view",
      "type": "function",
      "signature": "0x693ec85e"
    }
  ],
  "bytecode": "0x608060405234801561001057600080fd5b50610b98806100206000396000f3fe608060405234801561001057600080fd5b506004361061005e576000357c010000000000000000000000000000000000000000000000000000000090048063693ec85e14610063578063e28bddd914610093578063f60886b5146100c5575b600080fd5b61007d6004803603610078919081019061077a565b6100f5565b60405161008a9190610a0c565b60405180910390f35b6100ad60048036036100a89190810190610739565b610313565b6040516100bc939291906109c0565b60405180910390f35b6100df60048036036100da91908101906107bb565b61051b565b6040516100ec91906109a5565b60405180910390f35b6100fd6105cb565b60008260405161010d919061098e565b9081526020016040518091039020604051806060016040529081600082018054600181600116156101000203166002900480601f0160208091040260200160405190810160405280929190818152602001828054600181600116156101000203166002900480156101bf5780601f10610194576101008083540402835291602001916101bf565b820191906000526020600020905b8154815290600101906020018083116101a257829003601f168201915b50505050508152602001600182018054600181600116156101000203166002900480601f0160208091040260200160405190810160405280929190818152602001828054600181600116156101000203166002900480156102615780601f1061023657610100808354040283529160200191610261565b820191906000526020600020905b81548152906001019060200180831161024457829003601f168201915b50505050508152602001600282018054600181600116156101000203166002900480601f0160208091040260200160405190810160405280929190818152602001828054600181600116156101000203166002900480156103035780601f106102d857610100808354040283529160200191610303565b820191906000526020600020905b8154815290600101906020018083116102e657829003601f168201915b5050505050815250509050919050565b600081805160208101820180518482526020830160208501208183528095505050505050600091509050806000018054600181600116156101000203166002900480601f0160208091040260200160405190810160405280929190818152602001828054600181600116156101000203166002900480156103d55780601f106103aa576101008083540402835291602001916103d5565b820191906000526020600020905b8154815290600101906020018083116103b857829003601f168201915b505050505090806001018054600181600116156101000203166002900480601f0160208091040260200160405190810160405280929190818152602001828054600181600116156101000203166002900480156104735780601f1061044857610100808354040283529160200191610473565b820191906000526020600020905b81548152906001019060200180831161045657829003601f168201915b505050505090806002018054600181600116156101000203166002900480601f0160208091040260200160405190810160405280929190818152602001828054600181600116156101000203166002900480156105115780601f106104e657610100808354040283529160200191610511565b820191906000526020600020905b8154815290600101906020018083116104f457829003601f168201915b5050505050905083565b60008360008660405161052e919061098e565b908152602001604051809103902060000190805190602001906105529291906105ec565b5082600086604051610564919061098e565b908152602001604051809103902060010190805190602001906105889291906105ec565b508160008660405161059a919061098e565b908152602001604051809103902060020190805190602001906105be9291906105ec565b5060019050949350505050565b60405180606001604052806060815260200160608152602001606081525090565b828054600181600116156101000203166002900490600052602060002090601f016020900481019282601f1061062d57805160ff191683800117855561065b565b8280016001018555821561065b579182015b8281111561065a57825182559160200191906001019061063f565b5b509050610668919061066c565b5090565b61068e91905b8082111561068a576000816000905550600101610672565b5090565b90565b600082601f8301126106a257600080fd5b81356106b56106b082610a5b565b610a2e565b915080825260208301602083018583830111156106d157600080fd5b6106dc838284610b02565b50505092915050565b600082601f8301126106f657600080fd5b813561070961070482610a87565b610a2e565b9150808252602083016020830185838301111561072557600080fd5b610730838284610b02565b50505092915050565b60006020828403121561074b57600080fd5b600082013567ffffffffffffffff81111561076557600080fd5b61077184828501610691565b91505092915050565b60006020828403121561078c57600080fd5b600082013567ffffffffffffffff8111156107a657600080fd5b6107b2848285016106e5565b91505092915050565b600080600080608085870312156107d157600080fd5b600085013567ffffffffffffffff8111156107eb57600080fd5b6107f7878288016106e5565b945050602085013567ffffffffffffffff81111561081457600080fd5b610820878288016106e5565b935050604085013567ffffffffffffffff81111561083d57600080fd5b610849878288016106e5565b925050606085013567ffffffffffffffff81111561086657600080fd5b610872878288016106e5565b91505092959194509250565b61088781610af6565b82525050565b600061089882610abe565b6108a28185610aeb565b93506108b2818560208601610b11565b80840191505092915050565b60006108c982610ab3565b6108d38185610ac9565b93506108e3818560208601610b11565b6108ec81610b44565b840191505092915050565b600061090282610ab3565b61090c8185610ada565b935061091c818560208601610b11565b61092581610b44565b840191505092915050565b6000606083016000830151848203600086015261094d82826108be565b9150506020830151848203602086015261096782826108be565b9150506040830151848203604086015261098182826108be565b9150508091505092915050565b600061099a828461088d565b915081905092915050565b60006020820190506109ba600083018461087e565b92915050565b600060608201905081810360008301526109da81866108f7565b905081810360208301526109ee81856108f7565b90508181036040830152610a0281846108f7565b9050949350505050565b60006020820190508181036000830152610a268184610930565b905092915050565b6000604051905081810181811067ffffffffffffffff82111715610a5157600080fd5b8060405250919050565b600067ffffffffffffffff821115610a7257600080fd5b601f19601f8301169050602081019050919050565b600067ffffffffffffffff821115610a9e57600080fd5b601f19601f8301169050602081019050919050565b600081519050919050565b600081519050919050565b600082825260208201905092915050565b600082825260208201905092915050565b600081905092915050565b60008115159050919050565b82818337600083830152505050565b60005b83811015610b2f578082015181840152602081019050610b14565b83811115610b3e576000848401525b50505050565b6000601f19601f830116905091905056fea365627a7a72315820c78010fdc86d710433186f2b94b4b7948b8f78707f03956ddbf3f68be22072646c6578706572696d656e74616cf564736f6c63430005110040",
  "source": "pragma solidity ^0.5.12;\r\npragma experimental ABIEncoderV2;\r\n\r\ncontract Doc {\r\n\r\n    struct Document {\r\n        string docHash;\r\n        string orgID;\r\n        string docID;   \r\n    }\r\n\r\n    mapping (string => Document) public storedDocs;\r\n\r\n    function set(string memory contentHash, string memory _docHash, string memory _orgID, string memory _docID) public returns(bool) {\r\n        storedDocs[contentHash].docHash = _docHash;\r\n        storedDocs[contentHash].orgID = _orgID;\r\n        storedDocs[contentHash].docID = _docID;\r\n        return true;\r\n    }\r\n\r\n    function get(string memory contentHash) public view returns(Document memory) {\r\n        return storedDocs[contentHash];\r\n    }\r\n}",
  "sourcePath": "C:/Users/Madura/Desktop/New folder/meme/src/contracts/DocHash.sol",
  "compiler": {
    "name": "solc",
    "version": "0.5.17+commit.d19bba13.Emscripten.clang"
  },
  "schemaVersion": "3.0.2",
  "updatedAt": "2020-07-06T15:32:24.594Z",
  "devdoc": {
    "methods": {}
  },
  "userdoc": {
    "methods": {}
  }
}